{
  "contractName": "TOKENCrowdsalePure",
  "abi": [
    {
      "constant": false,
      "inputs": [],
      "name": "finalize",
      "outputs": [],
      "payable": false,
      "stateMutability": "nonpayable",
      "type": "function"
    },
    {
      "constant": true,
      "inputs": [],
      "name": "tokenSaled",
      "outputs": [
        {
          "name": "",
          "type": "uint256"
        }
      ],
      "payable": false,
      "stateMutability": "view",
      "type": "function"
    },
    {
      "constant": true,
      "inputs": [],
      "name": "totalToken",
      "outputs": [
        {
          "name": "",
          "type": "uint256"
        }
      ],
      "payable": false,
      "stateMutability": "view",
      "type": "function"
    },
    {
      "constant": true,
      "inputs": [],
      "name": "isFinalized",
      "outputs": [
        {
          "name": "",
          "type": "bool"
        }
      ],
      "payable": false,
      "stateMutability": "view",
      "type": "function"
    },
    {
      "constant": true,
      "inputs": [],
      "name": "owner",
      "outputs": [
        {
          "name": "",
          "type": "address"
        }
      ],
      "payable": false,
      "stateMutability": "view",
      "type": "function"
    },
    {
      "constant": false,
      "inputs": [
        {
          "name": "beneficiary",
          "type": "address"
        }
      ],
      "name": "buyTokens",
      "outputs": [],
      "payable": true,
      "stateMutability": "payable",
      "type": "function"
    },
    {
      "constant": false,
      "inputs": [
        {
          "name": "newOwner",
          "type": "address"
        }
      ],
      "name": "transferOwnership",
      "outputs": [],
      "payable": false,
      "stateMutability": "nonpayable",
      "type": "function"
    },
    {
      "constant": true,
      "inputs": [],
      "name": "token",
      "outputs": [
        {
          "name": "",
          "type": "address"
        }
      ],
      "payable": false,
      "stateMutability": "view",
      "type": "function"
    },
    {
      "inputs": [
        {
          "name": "_token",
          "type": "address"
        }
      ],
      "payable": false,
      "stateMutability": "nonpayable",
      "type": "constructor"
    },
    {
      "payable": true,
      "stateMutability": "payable",
      "type": "fallback"
    },
    {
      "anonymous": false,
      "inputs": [
        {
          "indexed": true,
          "name": "purchaser",
          "type": "address"
        },
        {
          "indexed": true,
          "name": "beneficiary",
          "type": "address"
        },
        {
          "indexed": false,
          "name": "value",
          "type": "uint256"
        },
        {
          "indexed": false,
          "name": "amount",
          "type": "uint256"
        }
      ],
      "name": "TokenPurchase",
      "type": "event"
    },
    {
      "anonymous": false,
      "inputs": [],
      "name": "Finalized",
      "type": "event"
    },
    {
      "anonymous": false,
      "inputs": [
        {
          "indexed": true,
          "name": "previousOwner",
          "type": "address"
        },
        {
          "indexed": true,
          "name": "newOwner",
          "type": "address"
        }
      ],
      "name": "OwnershipTransferred",
      "type": "event"
    }
  ],
  "bytecode": "0x606060405260006003556000600460006101000a81548160ff021916908315150217905550341561002f57600080fd5b604051602080610b6183398101604052808051906020019091905050336000806101000a81548173ffffffffffffffffffffffffffffffffffffffff021916908373ffffffffffffffffffffffffffffffffffffffff160217905550600073ffffffffffffffffffffffffffffffffffffffff168173ffffffffffffffffffffffffffffffffffffffff16141515156100c757600080fd5b80600160006101000a81548173ffffffffffffffffffffffffffffffffffffffff021916908373ffffffffffffffffffffffffffffffffffffffff160217905550600160009054906101000a900473ffffffffffffffffffffffffffffffffffffffff1673ffffffffffffffffffffffffffffffffffffffff1663313ce5676000604051602001526040518163ffffffff167c0100000000000000000000000000000000000000000000000000000000028152600401602060405180830381600087803b151561019657600080fd5b6102c65a03f115156101a757600080fd5b5050506040518051905060ff16600a0a634a817c80026002819055505061098e806101d36000396000f30060606040526004361061008e576000357c0100000000000000000000000000000000000000000000000000000000900463ffffffff1680634bb278f31461009957806354f090bd146100ae578063626be567146100d75780638d4e4083146101005780638da5cb5b1461012d578063ec8ac4d814610182578063f2fde38b146101b0578063fc0c546a146101e9575b6100973361023e565b005b34156100a457600080fd5b6100ac6104a1565b005b34156100b957600080fd5b6100c161074a565b6040518082815260200191505060405180910390f35b34156100e257600080fd5b6100ea610750565b6040518082815260200191505060405180910390f35b341561010b57600080fd5b610113610756565b604051808215151515815260200191505060405180910390f35b341561013857600080fd5b610140610769565b604051808273ffffffffffffffffffffffffffffffffffffffff1673ffffffffffffffffffffffffffffffffffffffff16815260200191505060405180910390f35b6101ae600480803573ffffffffffffffffffffffffffffffffffffffff1690602001909190505061023e565b005b34156101bb57600080fd5b6101e7600480803573ffffffffffffffffffffffffffffffffffffffff1690602001909190505061078e565b005b34156101f457600080fd5b6101fc6108e3565b604051808273ffffffffffffffffffffffffffffffffffffffff1673ffffffffffffffffffffffffffffffffffffffff16815260200191505060405180910390f35b600080600073ffffffffffffffffffffffffffffffffffffffff168373ffffffffffffffffffffffffffffffffffffffff161415151561027d57600080fd5b600460009054906101000a900460ff1615151561029957600080fd5b3491506706f05b59d3b2000082101515156102b357600080fd5b6102c86161a88361090990919063ffffffff16565b90506102df8160035461094490919063ffffffff16565b600381905550600160009054906101000a900473ffffffffffffffffffffffffffffffffffffffff1673ffffffffffffffffffffffffffffffffffffffff1663a9059cbb84836000604051602001526040518363ffffffff167c0100000000000000000000000000000000000000000000000000000000028152600401808373ffffffffffffffffffffffffffffffffffffffff1673ffffffffffffffffffffffffffffffffffffffff16815260200182815260200192505050602060405180830381600087803b15156103b257600080fd5b6102c65a03f115156103c357600080fd5b50505060405180519050506000809054906101000a900473ffffffffffffffffffffffffffffffffffffffff1673ffffffffffffffffffffffffffffffffffffffff166108fc349081150290604051600060405180830381858888f19350505050151561042f57600080fd5b8273ffffffffffffffffffffffffffffffffffffffff163373ffffffffffffffffffffffffffffffffffffffff167f623b3804fa71d67900d064613da8f94b9617215ee90799290593e1745087ad188484604051808381526020018281526020019250505060405180910390a3505050565b6000809054906101000a900473ffffffffffffffffffffffffffffffffffffffff1673ffffffffffffffffffffffffffffffffffffffff163373ffffffffffffffffffffffffffffffffffffffff161415156104fc57600080fd5b600460009054906101000a900460ff1615151561051857600080fd5b600160009054906101000a900473ffffffffffffffffffffffffffffffffffffffff1673ffffffffffffffffffffffffffffffffffffffff1663a9059cbb6000809054906101000a900473ffffffffffffffffffffffffffffffffffffffff16600160009054906101000a900473ffffffffffffffffffffffffffffffffffffffff1673ffffffffffffffffffffffffffffffffffffffff166370a08231306000604051602001526040518263ffffffff167c0100000000000000000000000000000000000000000000000000000000028152600401808273ffffffffffffffffffffffffffffffffffffffff1673ffffffffffffffffffffffffffffffffffffffff168152602001915050602060405180830381600087803b151561063d57600080fd5b6102c65a03f1151561064e57600080fd5b505050604051805190506000604051602001526040518363ffffffff167c0100000000000000000000000000000000000000000000000000000000028152600401808373ffffffffffffffffffffffffffffffffffffffff1673ffffffffffffffffffffffffffffffffffffffff16815260200182815260200192505050602060405180830381600087803b15156106e557600080fd5b6102c65a03f115156106f657600080fd5b50505060405180519050506001600460006101000a81548160ff0219169083151502179055507f6823b073d48d6e3a7d385eeb601452d680e74bb46afe3255a7d778f3a9b1768160405160405180910390a1565b60035481565b60025481565b600460009054906101000a900460ff1681565b6000809054906101000a900473ffffffffffffffffffffffffffffffffffffffff1681565b6000809054906101000a900473ffffffffffffffffffffffffffffffffffffffff1673ffffffffffffffffffffffffffffffffffffffff163373ffffffffffffffffffffffffffffffffffffffff161415156107e957600080fd5b600073ffffffffffffffffffffffffffffffffffffffff168173ffffffffffffffffffffffffffffffffffffffff161415151561082557600080fd5b8073ffffffffffffffffffffffffffffffffffffffff166000809054906101000a900473ffffffffffffffffffffffffffffffffffffffff1673ffffffffffffffffffffffffffffffffffffffff167f8be0079c531659141344cd1fd0a4f28419497f9722a3daafe3b4186f6b6457e060405160405180910390a3806000806101000a81548173ffffffffffffffffffffffffffffffffffffffff021916908373ffffffffffffffffffffffffffffffffffffffff16021790555050565b600160009054906101000a900473ffffffffffffffffffffffffffffffffffffffff1681565b600080600084141561091e576000915061093d565b828402905082848281151561092f57fe5b0414151561093957fe5b8091505b5092915050565b600080828401905083811015151561095857fe5b80915050929150505600a165627a7a723058205aa99bb43951c9249cedc61e0dd5df35a95a29a1f06a0f50036bd96307f088640029",
  "source": "\r\npragma solidity ^0.4.18;\r\n\r\nimport './Ownable.sol';\r\nimport './SafeMath.sol';\r\nimport './DATxToken.sol';\r\n\r\ncontract TOKENCrowdsalePure is Ownable {\r\n  using SafeMath for uint;\r\n\r\n  Token public token;\r\n  uint public totalToken;\r\n  uint public tokenSaled = 0;\r\n  \r\n  bool public isFinalized = false;\r\n\r\n  event TokenPurchase(address indexed purchaser, address indexed beneficiary, uint value, uint amount);\r\n  event Finalized();\r\n\r\n  function TOKENCrowdsalePure(address _token) public {\r\n    require(_token != address(0));\r\n    token = Token(_token);\r\n\r\n    totalToken = 1250000000 * 10 ** uint(token.decimals());\r\n  }\r\n\r\n  function () external payable {\r\n    buyTokens(msg.sender);\r\n  }\r\n\r\n  function buyTokens(address beneficiary) public payable {\r\n    require(beneficiary != address(0));\r\n    require(!isFinalized);\r\n    uint ethValue = msg.value;\r\n    require(ethValue >= 0.5 ether);\r\n\r\n    uint needTokens = ethValue.mul(25000);\r\n    tokenSaled = tokenSaled.add(needTokens);\r\n    token.transfer(beneficiary, needTokens);\r\n    owner.transfer(msg.value);\r\n    TokenPurchase(msg.sender, beneficiary, ethValue, needTokens);\r\n  }\r\n\r\n  function finalize() onlyOwner public {\r\n    require(!isFinalized);\r\n    token.transfer(owner,token.balanceOf(this));\r\n    isFinalized = true;\r\n    Finalized();\r\n  }\r\n}",
  "sourcePath": "E:\\DATx_Contract\\contracts\\DATxCrowdsale.sol",
  "compiler": {
    "name": "solc",
    "version": "0.4.18+commit.9cf6e910.Emscripten.clang"
  },
  "schemaVersion": "1.0.1",
  "updatedAt": "2018-02-11T09:29:55.939Z"
}